:020000040000FA
:100000000202978F4212063CC3EF950FFDEE950E4C
:10001000FCD3ED94C8EC940040074342408E0E8F11
:100020000FAF422275A44275D43F2202039A75A9EC
:1000300003222202020685BF2A1200671206081256
:100040000615120622120024120647120651120645
:100050005812065F12002E1205EA12059C12062F96
:10006000120666852ABF22E4F5BF53D9BFF5D943EE
:10007000D840220205DA8F2A8D2B8B2CAB2DAA2E8D
:10008000A92F1201487003020147F530FF3395E0B4
:10009000FEC3EF9420EE64809480400BD3EF947EF7
:1000A000EE648094804003753020D3E52B947874FF
:1000B0008094804002807CAF30EF3395E0FE75F095
:1000C00064E52CA42FF582E5F03EF583E582244D0E
:1000D000F582E5833406F583E493F9E52B131313D6
:1000E000541F252AFDF8C000E6FA08E6FBE52B546C
:1000F00007FC7EFFE4A804088005CEC313CE13D806
:10010000F9F4FFEEF45AFEEB5FD000A60608F6A85D
:1001100005C000E6FA08E6FBE9FEE4A8040880054D
:10012000CEC313CE13D8F9FFEA4EFEEB4FD000A694
:100130000608F67401252FF52FE4352EF52E7406EA
:10014000252BF52B02007C22BB010689828A83E0E5
:10015000225002E722BBFE02E32289828A83E493D3
:1001600022BB010CE58229F582E5833AF583E02282
:100170005006E92582F8E622BBFE06E92582F8E270
:1001800022E58229F582E5833AF583E49322EF8D17
:10019000F0A4A8F0CF8CF0A428CE8DF0A42EFE22DF
:1001A000BC000BBE0029EF8DF084FFADF022E4CC43
:1001B000F875F008EF2FFFEE33FEEC33FCEE9DEC0C
:1001C000984005FCEE9DFE0FD5F0E9E4CEFD22ED52
:1001D000F8F5F0EE8420D21CFEADF075F008EF2F9C
:1001E000FFED33FD4007985006D5F0F222C398FD8D
:1001F0000FD5F0EA22EB9FF5F0EA9E42F0E99D422E
:10020000F0E89C45F022C0E0C0F0C083C082C0D0BE
:1002100075D000C000C001C002C003C004C005C04A
:1002200006C007E5F854F0FFF4440F52F8EF30E74A
:100230004BE508602F300113850C82850B83E5A305
:10024000F0050CE50C7007050B800385A327150846
:10025000E508700D300305300002D2FA1205B580B2
:100260000385080AE509601430F911300209A80D68
:10027000E2F5A3050D800375A3001509D007D0068C
:10028000D005D004D003D002D001D000D0D0D0828D
:10029000D083D0F0D0E032120032787FE4F6D8FD7F
:1002A0007581540202E1020326E493A3F8E493A3C8
:1002B0004003F68001F208DFF48029E493A3F854A8
:1002C00007240CC8C333C4540F4420C8834004F42B
:1002D00056800146F6DFE4800B010204081020403E
:1002E0008090053CE47E019360BCA3FF543F30E561
:1002F00009541FFEE493A360010ECF54C025E060B3
:10030000A840B8E493A3FAE493A3F8E493A3C8C580
:1003100082C8CAC583CAF0A3C8C582C8CAC583CA71
:10032000DFE9DEE780BEE4F529120036D2AF120520
:10033000821205FAE4F528C3E528940874809480B5
:1003400050247F45752DFF752E09752F8DAB287DA7
:1003500003120076E5282404FF7B007A0079451219
:1003600003FB052880D1E4F528C3E52894087480B0
:10037000948050247F45752DFF752E09752F92AB03
:10038000287D03120076E528240EFF7B007A007991
:10039000451203FB052880D180FEC0E0C0F0C08379
:1003A000C082C0D075D000C000C001C002C003C070
:1003B00004C005C006C00753C87F53C8FBAF10EF89
:1003C000640170117510027F008511257B02FDFC10
:1003D000120446800BAF10EF64037004C281F51065
:1003E000D007D006D005D004D003D002D001D00071
:1003F000D0D0D082D083D0F0D0E0328F2A8B2B8A1D
:100400002C892D7F801200038F2EE52A04FF120510
:10041000108F2FE4FFEFC39410748094805018ABBA
:100420002BAA2CA92D8F82758300120161FE7430D6
:100430002FF8A6060F80DEE4F540F541FB7A00793F
:100440002E7D140204CF85250885250985250A8F70
:100450000D8C0B8D0CEB139201EBA2E192022004A8
:10046000031205C985A32653F80F30030530000297
:10047000C2FA30F915E5096011300209A80DE2F55C
:10048000A3050D8003E4F5A31509228F2B8D2CE520
:100490002C6005752CFF8003E4F52C7F801200038F
:1004A0008F2DE52B04FF1205108F2EE4FFEFC39470
:1004B00010748094805009742F2FF8A62C0F80EDB3
:1004C000E4F53FF540FB7A00792D7D140204CF8BD3
:1004D000428A438944AF10EF70FB7510018D11FF04
:1004E000EFC39D5018AB42AA43A9448F8275830085
:1004F000120161FE74002FF8EEF20F80E3AFBFE44B
:10050000F5BF75CDFF75CCF4D28143C8048FBF22EF
:10051000EF540FC454F0FEEF54F0C4540F4EFF5488
:100520003325E025E0FEEF54CC1313543F4EFF5427
:100530005525E0FEEF54AAC3134EFF22020E000021
:1005400001100001110002120000C100C103C1042A
:10055000C101C102010800010900010A00010D00EA
:10056000020B000000AD07AC0612063CAB07AA0662
:1005700012063CC3EF9BFFEE9AFEC3EF9DEE9C403C
:10058000EF22E4F52AC3E52A948074809480500B0E
:10059000E4FDAF2A12048B052A80EA22E591540477
:1005A0005391FB7595F87594307593F0759260438F
:1005B0009104429122751003AFBFE4F5BF75CDFFE2
:1005C00075CCFC43C8048FBF22E5A1A2E69203E5E7
:1005D000F8540C24FF9200D20422C0E053917F050E
:1005E00013E51370020512D0E032AF885388AFEFE5
:1005F0005440FEEF54104E428822C281D2947F0AAA
:100600007E00120565020582E5D8544042D875DAAD
:1006100042E4F5FC22E5D8544042D875DB42E4F5CB
:10062000EA22E5D8544042D875DC42E4F5EC227564
:10063000A21743A14053F8F343F8012253E67FAFDA
:1006400013AE1243E6802275A51175F2DF75D53E13
:100650002275F3DF75D6202275E24075E102225340
:10066000B2FC43B2022275E68075A86022002050D9
:100670005020C0606010400000000000007020703A
:10068000F810F830F870700000080080707070F09A
:1006900070E0F8F8708870388880888870F070F0A2
:1006A00078F88888888888F870007020004000807A
:1006B0000008003000802010806000000000000072
:1006C000004000000000000030206000000000003A
:1006D000000020505078C8902020202020000000EA
:1006E0000088608810308040088888606010004072
:1006F0008808888888908080888820109080D88892
:1007000088888888802088888888880840001050D9
:100710000020008000080048788000008020000051
:1007200000000000004000000000000040201040D9
:100730000000000000002050F88010A0404010A8E9
:1007400020000000089820082050F0801088886061
:100750006020F820080888888088808080882010A1
:10076000A080A8C8888888888020888888508810B9
:1007700040801088001070B07068704088B06030A1
:100780009020D0B070F068B070E08888888888F8D1
:10079000402010A800000000000020005070204001
:1007A00000401070F800F80010A82010109008F019
:1007B0002070780000400010106888F08088F0F009
:1007C000B8F82010C080A8A888F088F07020888829
:1007D000A820502040401000000008C8809888E001
:1007E00088C82010A020A8C8888898C88040888819
:1007F00088508810802008100000000000000000D1
:10080000F80840A8004010A82060000020C8202060
:1008100008F80888408808606020F82020A8F88838
:100820008088808088882010A08088988880A8A0F0
:1008300008208888A85020404020100000007888B8
:100840008088F84078882010C020A88888F07880B8
:1008500070408888A8207820402010000000000008
:100860000000000050F09890002020202020006020
:100870004088204088108888408810602010004000
:1008800000A88888889080808888209090808888B8
:100890008880909008208850A88820804010100000
:1008A000000088888888804008882090A020888858
:1008B0008880088008489850A850084040201000C0
:1008C00000000000000020005020186800104000C8
:1008D00000400060807070F87010707040706000B0
:1008E00040080080207088F070E0F88070887060A8
:1008F00088F8888870806888F0207020508820F8F8
:1009000070087000FC0078F070787040708870603B
:100910009070888870800880F0306820508870F867
:100920003020600000000000000000000000000017
:1009300000000000000000000000000000000000B7
:1009400000000000000000000000000000000000A7
:100950000000000000000000000000000000000097
:100960000000000000000000000000000000000087
:100970000000000000000000000000000000000077
:1009800000000000000000000000000000F09F9840
:10099000BB0044616E6E792C204E697620616E64D6
:0609A000204C696F72009B
:00000001FF
