:020000040000FA
:100000000207367B007AC0797F78441202777B9AA8
:100010007A997999783F12016E7B0A7AD779237899
:100020003C120277020352E4F5AF2202089C75D11C
:100030008522220206A50251000002530000011D84
:1000400000011E0002550000C100C103C104C1012E
:10005000C102011700011800011900011C00021A59
:100060000000020A0000020800000075A44275D4D6
:100070003F2222020C250203BEE86480F8E933E83F
:100080003360110460F0ED33EC337009E8FCE9FDF6
:10009000EAFEEBFF220460DED3EB9FEA9EE99DE8D7
:1000A000C2E78CF0C2F795F0400CE8CCF8E9CDF946
:1000B000EACEFAEBCFFB12038985D0F05804700327
:1000C00020D5B3E80470075002B2D50203C892D518
:1000D000EC0460F7E4CCC0E0C398F8603B9418608F
:1000E00008400DD0E0FB0203A0E4FBFAC9FC802825
:1000F000E830E406E4C9FBE4CAFCE830E305E4C9FF
:10010000CACBFCE854076010F8C3E913F9EA13FA04
:10011000EB13FBEC13FCD8F130F52FC3E49CFCEFA0
:100120009BFFEE9AFEED99FDD0E0FBEF4E4D4C703B
:100130001222DB030203C5EC2CFCEF33FFEE33FE8F
:10014000ED33FDED30E7EB0203A0EF2BFFEE3AFEBF
:10015000ED39FDD0E0FB50130BBB00030203C8EDEB
:1001600013FDEE13FEEF13FFEC13FC0203A0EC4DA6
:100170006011E8497017ED33EC3304600DE4FCFFC7
:10018000FEFD22E933E8330470F80203BE1203894E
:1001900058046009E4CC248150062850090203C8A1
:1001A0002840030203C5C0E0EB4A7044B98006D082
:1001B000E0FB0203B4EF4E701CBD8008EBFFEAFECB
:1001C000E9FD80EBE98DF0A4FEE5F0020257E9CDF0
:1001D000F9EAFEEBFFEF89F0A4FCE5F0CE89F0A48C
:1001E0002EFFE435F0CD89F0A42DFEE435F08067D4
:1001F000EF4E7005BD80D780C3EF8BF0A4ACF0EE5E
:100200008BF0A42CFCE435F0F8EF8AF0A42CE5F098
:1002100038FCE433CB8DF0A42CFCE5F03BF8EE8AFF
:10022000F0A42CFCE5F038F8E433CF89F0A42CFCE2
:10023000E5F038CF3400CE89F0A42FFFE5F03EFE84
:10024000E433C98DF0A42EFEE5F039CD8AF0A42F59
:10025000FFE5F03EFEE43DFD33D0E0FB50070BBB75
:10026000000F0203C8EC2CFCEF33FFEE33FEED333E
:10027000FD0203A00203C8EC5D046005E8590470A8
:10028000030203BE120389580460F6EC4860F2ECE6
:100290007004FDFEFF22C860DB2481C85009C398AA
:1002A000600250060203C59850CAF582E9294B4AFC
:1002B0007005AB820203B475F0007C1A7880C3EF3E
:1002C0009BEE9AED99400DC3EF9BFFEE9AFEED99E0
:1002D000FDE842F0DC23ACF0D0E0FFD0E0FED0E05F
:1002E000FDAB8220E7101BEB60BAEC2CFCEF33FF78
:1002F000EE33FEED33FD0203A0E803F830E705C05E
:10030000F075F000EF2FFFEE33FEED33FD40B83017
:10031000E7C280AA75F020800E75F010800575F098
:10032000087D007E007F003392D530D5031204EAA9
:10033000EC334010EF33FFEE33FEED33FDEC33FCD6
:10034000D5F0ED22E5F0247EA2D513CC92E7CDCEF8
:10035000FF22EDD2E7CD33EC3392D524814006E481
:10036000FFFEFDFC22FCE4CFCECDCC24E050117486
:10037000FF80EDC3CC13CCCD13CDCE13CECF13CF96
:100380000470F030D5DE0204EAE9D2E7C933E8337D
:10039000F892D5EDD2E7CD33EC33FC5002B2D52242
:1003A000EC30E7100FBF000C0EBE00080DBD0004BE
:1003B0000BEB6014A2D5EB13FCED92E7FD2274FF6A
:1003C000FCFDFEFF22E480F8A2D574FF13FC7D80C3
:1003D000E480EFBB010689828A83E0225002E72293
:1003E000BBFE02E32289828A83E49322BB010CE5EF
:1003F0008229F582E5833AF583E0225006E92582D9
:10040000F8E622BBFE06E92582F8E222E58229F51C
:1004100082E5833AF583E49322BB010689828A83CD
:10042000F0225002F722BBFE01F322F8BB010DE5DA
:100430008229F582E5833AF583E8F0225006E92522
:1004400082C8F622BBFE05E92582C8F222EF8DF0B4
:10045000A4A8F0CF8CF0A428CE8DF0A42EFE22BC50
:10046000000BBE0029EF8DF084FFADF022E4CCF844
:1004700075F008EF2FFFEE33FEEC33FCEE9DEC98A9
:100480004005FCEE9DFE0FD5F0E9E4CEFD22EDF82F
:10049000F5F0EE8420D21CFEADF075F008EF2FFFD2
:1004A000ED33FD4007985006D5F0F222C398FD0FBA
:1004B000D5F0EA22C2D5EC30E709B2D5E4C39DFD00
:1004C000E49CFCEE30E715B2D5E4C39FFFE49EFE4A
:1004D00012045FC3E49DFDE49CFC800312045F30C2
:1004E000D507C3E49FFFE49EFE22C3E49FFFE49E82
:1004F000FEE49DFDE49CFC22EB9FF5F0EA9E42F0B9
:10050000E99D42F0E89C45F0228F358D368B37AB64
:1005100038AA39A93A1203D370030205DAF53BFF72
:100520003395E0FEC3EF9420EE64809480400BD3BB
:10053000EF947EEE648094804003753B20D3E536D3
:100540009478748094804002807CAF3BEF3395E0D8
:10055000FE75F064E537A42FF582E5F03EF583E5FE
:100560008224D0F582E583340CF583E493F9E536F3
:10057000131313541F2535FDF8C000E6FA08E6FBF7
:10058000E5365407FC7EFFE4A804088005CEC313BB
:10059000CE13D8F9F4FFEEF45AFEEB5FD000A606B6
:1005A00008F6A805C000E6FA08E6FBE9FEE4A804A0
:1005B000088005CEC313CE13D8F9FFEA4EFEEB4FE9
:1005C000D000A60608F67401253AF53AE43539F567
:1005D0003974062536F53602050F22120998120BDA
:1005E00097120C35A282E4FE33FFA283E4FC33FDB4
:1005F000120BF1E50B450A60EBC296E50B450A705C
:10060000030206997F1E7E00120C14E412031412DA
:100610000AAEEE3395E08F0F8E0EF50DF50C7F05CB
:100620007E00120C14E4120314120003EE3395E062
:100630008F138E12F511F510308D33AC0EAD0F12F5
:1006400007C5120B19C3EF940FEE64809480400924
:10065000750800750901120CEC120B19C3EF940F09
:10066000EE648094805005E4F508F509C28DE50933
:100670004508600D308F02B2B7D296C2A0C28F80FB
:1006800006D2A0C296C2B7A282E4FE33FFA283E4E0
:10069000FC33FD120BF10205FBD2A0D296C2B712B9
:1006A0000B970205E4C0E0C0F0C083C082C0D075E3
:1006B000D000C000C001C002C003C004C005C00615
:1006C000C007E5F854F0FFF4440F52F8EF30E74B61
:1006D000E517602F300113851B82851A83E5A3F08F
:1006E000051BE51B7007051A800385A3271517E571
:1006F00017700D300305300002D2FA120BCA8003C6
:10070000851719E518601430F911300209A81CE2A8
:10071000F5A3051C800375A3001518D007D006D0DB
:1007200005D004D003D002D001D000D0D0D082D0E8
:1007300083D0F0D0E032120072787FE4F6D8FD75F5
:1007400081660207800205DBE493A3F8E493A340EB
:1007500003F68001F208DFF48029E493A3F854073C
:10076000240CC8C333C4540F4420C8834004F45637
:10077000800146F6DFE4800B01020408102040806F
:10078000900036E47E019360BCA3FF543F30E5093E
:10079000541FFEE493A360010ECF54C025E060A86F
:1007A00040B8E493A3FAE493A3F8E493A3C8C58202
:1007B000C8CAC583CAF0A3C8C582C8CAC583CADF70
:1007C000E9DEE780BE8E288F298C2A8D2B7BFF7A6D
:1007D00010791075310075320474FFFFFE12083372
:1007E0007BFF7A10792375310075320E74FFFFFE9E
:1007F0001208337BFF7A107937753100753218AFE4
:1008000029AE281208337BFF7A10794975310075BB
:100810003222AF2BAE2A120833AD29AC28AF2BAE53
:100820002A120B217BFF7A10795B75310075322C0F
:100830000208338E2C8F2D8B2E8A2F8930E4F533CE
:10084000F5347F57AB34852E38852F3985303A7D86
:1008500003120509E52DF47003E52CF4601C7B0000
:100860007A007914AF2DAE2C1208FD8B388A3989A5
:100870003A7F57AB347D6E120509E5322534FF7B94
:10088000007A00795712094D0534E53470020533BA
:10089000C39408E5336480948040A722C0E0C0F090
:1008A000C083C082C0D075D000C000C001C002C0EB
:1008B00003C004C005C006C00753C87F53C8FBAFC0
:1008C0001DEF64017011751D027F00851E257B02DE
:1008D000FDFC1209E1800BAF1DEF64037004C281BF
:1008E000F51DD007D006D005D004D003D002D0012A
:1008F000D000D0D0D082D083D0F0D0E0328E358FEF
:10090000368B378A388939900002E412042BAE35D1
:10091000AF367C007D0A1204B4ED2430AB37AA3820
:10092000A93990000112042BAE35AF367C007D0A48
:100930001204B47C007D0A1204B4ED2430AB37AA53
:1009400038A939120419AB37AA38A939228F358B47
:10095000368A3789387F80120B3D8F39E53504FFA1
:10096000120AED8F3AE4FFEFC39410748094805024
:1009700018AB36AA37A9388F827583001203ECFEB4
:10098000743B2FF8A6060F80DEE4F54BF54CFB7A9E
:100990000079397D14020A6A85BF28120C9E120C58
:1009A00043120C50120C5D12006B120CB5120CD3DA
:1009B000120C91120CBF120C8412002E120CE812B1
:1009C0000CDA120032120027120B7B120BB1120B41
:1009D000DE120C6A120C77120CC9120CE18528BFCA
:1009E000228525178525188525198F1C8C1A8D1BA6
:1009F000EB139201EBA2E19202200403120C038597
:100A0000A32653F80F300305300002C2FA30F9155F
:100A1000E5186011300209A81CE2F5A3051C80034B
:100A2000E4F5A31518228F298D2AE52A6005752A79
:100A3000FF8003E4F52A7F80120B3D8F2BE529040C
:100A4000FF120AED8F2CE4FFEFC3941074809480A2
:100A50005009742D2FF8A62A0F80EDE4F53DF53EE0
:100A6000FB7A00792B7D14020A6A8B4D8A4E894FDE
:100A7000E4F550AF1DEF70FB751D018D1EFFEFC338
:100A80009D5018AB4DAA4EA94F8F8275830012035B
:100A9000ECFE74002FF8EEF20F80E3AFBFE4F5BF79
:100AA00075CDFF75CCF4D28143C8048FBF227B0083
:100AB0007AC0797F78441202777B9A7A997999780B
:100AC0003F12016E8F2B8E2A8D298C287F817E9577
:100AD0007D437CBFAB2BAA2AA929A82812007D7BC5
:100AE0009C7A16793C783B120277020352EF540F3E
:100AF000C454F0FEEF54F0C4540F4EFF543325E0BD
:100B000025E0FEEF54CC1313543F4EFF545525E01F
:100B1000FEEF54AAC3134EFF22AE0EAF0FAC12ADC0
:100B200013D3EF9DEC6480F8EE6480984007EF9D4E
:100B3000FFEE9CFE22C3ED9FFFEC9EFE228F4D1226
:100B40000CAAC3EF9552FDEE9551FCD3ED94C8EC81
:100B500094004007434D408E518F52AF4D22AD0758
:100B6000AC06120CAAAB07AA06120CAAC3EF9BFF95
:100B7000EE9AFEC3EF9DEE9C40EF22AF885388AF04
:100B8000758C0B758ADC758DFE758BE4EF5440FE19
:100B9000EF54104E428822E4F528C3E5289480746F
:100BA000809480500BE4FDAF28120A26052880EAC5
:100BB00022E59154045391FB7595F8759430759323
:100BC000FE75920C439104429122751D03AFBFE460
:100BD000F5BF75CDFF75CCFC43C8048FBF2275BF30
:100BE0000FE5C8540453C8FB43C80875CC9642C8E7
:100BF00022EF4E7005F50A750B01ED4C7004F50AF5
:100C0000F50B22E5A1A2E69203E5F8540C24FF922D
:100C100000D204228FBBD2EC30EDFDC2EDAFBDAEF1
:100C2000BEE4FCFD22C0E053917F0556E5567002FC
:100C30000555D0E032C281D2947F0A7E00120B5E4D
:100C4000020B97E5D8544042D875DA42E4F5FC220D
:100C5000E5D8544042D875DB42E4F5EA22E5D854A1
:100C60004042D875DC42E4F5EC22E4F5BF758E0213
:100C70007589114388502275A20243A14053F8F3AD
:100C800043F80122E4F5BC75BA1F75BB1E43E8802A
:100C90002275B07F75A78075F4BF75DFC022E4F5BB
:100CA000BF53D9BFF5D943D8402253E67FAF56AEE4
:100CB0005543E6802275A59175F2DF75D57E2275C4
:100CC000E24075E10275E3012275AC4375B5FE752E
:100CD000B4C82275F39F75D6612253B2FC43B202A9
:100CE0002275E68075A8E02275EF062275D353229F
:100CF0000020505020C06060104000000000000044
:100D0000702070F810F830F87070000008008070E3
:100D10007070F070E0F8F87088703888808888709B
:100D2000F070F078F88888888888F8700070200063
:100D3000400080000800300080201080600000002B
:100D400000000000400000000000003020600000B3
:100D5000000000000020505078C890202020202063
:100D6000000000008860881030804008888860603B
:100D7000100040880888888890808088882010909B
:100D800080D88888888888802088888888880840D3
:100D9000001050002000800008004878800000808B
:100DA00020000000000000004000000000000040A3
:100DB0002010400000000000002050F88010A040EB
:100DC0004010A820000000089820082050F0801053
:100DD0008888606020F82008088888808880808063
:100DE000882010A080A8C888888888802088888863
:100DF00050881040801088001070B0706870408873
:100E0000B060309020D0B070F068B070E088888812
:100E10008888F8402010A800000000000020005042
:100E200070204000401070F800F80010A82010104A
:100E30009008F02070780000400010106888F08062
:100E400088F0F0B8F82010C080A8A888F088F0706A
:100E5000208888A820502040401000000008C8804A
:100E60009888E088C82010A020A8C8888898C880E2
:100E700040888888508810802008100000000000FA
:100E8000000000F80840A8004010A82060000020E2
:100E9000C8202008F80888408808606020F82020D2
:100EA000A8F8888088808088882010A0808898880A
:100EB00080A8A008208888A850204040201000006A
:100EC0000078888088F84078882010C020A888881A
:100ED000F0788070408888A820782040201000009A
:100EE0000000000000000050F0989000202020201A
:100EF000200060408820408810888840881060204A
:100F000010004000A8888888908080888820909071
:100F10008088888880909008208850A88820804009
:100F2000101000000088888888804008882090A0E1
:100F30002088888880088008489850A85008404039
:100F40002010000000000000002000502018680061
:100F500010400000400060807070F87010707040A9
:100F600070600040080080207088F070E0F88070A9
:100F700088706088F8888870806888F020702050B9
:100F80008820F870087000FC0078F070787040706D
:100F90008870609070888870800880F03068205079
:100FA0008870F830206000000000000000000000A1
:100FB0000000000000000000000000000000000031
:100FC0000000000000000000000000000000000021
:100FD0000000000000000000000000000000000011
:100FE0000000000000000000000000000000000001
:100FF00000000000000000000000000000000000F1
:1010000000000000000000000000000000000000E0
:101010004F52542042524155444520434F4C4C4579
:1010200047450044616E6E792C204E697620616ED2
:1010300064204C696F720045787465726E616C2033
:1010400074656D702069732000496E7465726E61FD
:101050006C2074656D702069732000446966666554
:0A10600072656E636520697320005D
:00000001FF
