:1000000000100020F1010000ED010000ED010000F2
:10001000ED010000ED010000ED010000ED01000028
:10002000ED010000ED010000ED010000ED01000018
:10003000ED010000ED010000ED010000ED01000008
:10004000ED010000ED010000ED010000ED010000F8
:10005000ED010000ED010000ED010000ED010000E8
:10006000ED010000ED010000ED010000ED010000D8
:10007000ED010000ED010000ED010000ED010000C8
:10008000ED010000ED010000ED010000ED010000B8
:10009000ED010000ED010000ED010000ED010000A8
:1000A000ED010000ED010000ED010000ED01000098
:1000B000ED010000ED010000ED010000ED01000088
:1000C000ED010000ED010000ED010000ED01000078
:1000D000ED010000ED010000ED010000ED01000068
:1000E00010B5054C237833B9044B13B10448AFF372
:1000F00000800123237010BD741000200000000058
:10010000DC06000008B5034B1BB103490348AFF3FD
:10011000008008BD0000000078100020DC06000010
:10012000A3F5803A704700BF174B002B08BF134B55
:100130009D46FFF7F5FF00218B460F461348144AF2
:10014000121A00F041FA0E4B002B00D098470D4BCD
:10015000002B00D098470020002104000D000D481E
:10016000002802D00C48AFF3008000F009FA20000C
:10017000290000F013F800F0EFF900BF00000800BC
:10018000000000000000000000100020741000209B
:100190009010002000000000000000000F4A1048EE
:1001A00008B501231364194600F0E6F80123184648
:1001B0000222092100F086F90422002302211046C0
:1001C00000F080F90749084B0422D1F8240810B93F
:1001D000C3F8A020F9E7C3F8A420F6E700000C401C
:1001E00000D2040000000C4200600040FEE7000066
:1001F00008B500F087F8064B0649074A8B4201D341
:10020000FFF792FF52F8040B43F8040BF6E700BF28
:100210000010002074100020E4060000254AD36A74
:1002200003F47053B3F5805F3AD0B3F5005F04D0A8
:10023000B3F5006F0BD1204B00E0204B1B681D4A2B
:100240001068C0F382300130B3FBF0F07047D36820
:1002500003F4E063B3F5407F25D008D8B3F5807F81
:100260000ED0B3F5007F20D0A3B10023E7E7B3F5AC
:10027000806F1CD0B3F5A06F114B18BF0023DEE7D1
:10028000104B1148D3F8FC20104BB2F1985F38BFE7
:100290000346D4E70B4B0E48D3F8FC200D4BF4E794
:1002A0004FF40043CBE70C4BC9E70C4BC7E70C4BB3
:1002B000C5E700BF00800C4004100020081000209B
:1002C000003FAB010081E00FC0CF6A0040B5640081
:1002D00040420F00804F1200809FD500C0D8A70079
:1002E000406F400108B5FFF799FF044B5B6803F0CE
:1002F0000F03D840024B186008BD00BF00800C40BF
:1003000000100020044B054A9A60D3F8882042F47C
:100310007002C3F88820704700ED00E00000000084
:10032000FEE700000B4B98420ED90B4B98420ED9BA
:100330000222012309498B6709494B6823F4807322
:1003400043EA02234B60704700221346F2E7012282
:10035000FBE700BF00366E01006CDC02000090433A
:1003600000800C40034B5A6DD20702D41A6D104224
:10037000FCD1704700800C40C0F30323013B70B5F3
:1003800004460E46092B23D8DFE803F02905152281
:10039000222C1C22221F154D0020C4F3043408B166
:1003A000FFF7E0FF05F1424505F5801504EBC504B4
:1003B000A400266070BDFFF795FFFFF7B3FF0C4D5B
:1003C0000020EAE70B4D1020E7E70B4D0020E4E7A3
:1003D000BDE87040094841F6D521FFF7A1BF084D9F
:1003E0000020DAE7074D0120D7E700BF44800C402A
:1003F00040800C4060800C4078800C40F405000088
:1004000008800C4058800C40EFF3108072B67047A3
:1004100000B962B670470000042838B504460D469E
:1004200016D9052804D141F6FF73EB40DB0704D44D
:10043000094840F22B41FFF773FF2420444304F1A5
:100440008044012104F5C04401FA05F5256138BD59
:100450004FF6FF73E9E700BF3F060000042838B5F8
:1004600004460D4616D9052804D141F6FF73EB402A
:10047000DB0704D409484FF47F71FFF751FF2420B4
:10048000444304F18044012104F5C04401FA05F518
:10049000656138BD4FF6FF73E9E700BF3F06000016
:1004A00070B505460E461446FFF7AEFF296881EA8F
:1004B000040202EA06044C402C60BDE87040FFF7DD
:1004C000A7BF00000428F8B505460C4616461F468F
:1004D00028D9052804D141F6FF73E340DB0704D493
:1004E0001A484FF4B071FFF71BFF26B1214628468A
:1004F000DFB1FFF791FF2423072C05FB03F34FF037
:100500000F0115D8A00006FA00F2814010481844E7
:10051000FFF7C6FFC6B9214628468FB1BDE8F840AF
:10052000FFF77ABF4FF6FF73D7E7FFF797FFE2E7D2
:10053000A4F10800800006FA00F281400548E6E7D1
:10054000BDE8F840FFF78ABFF8BD00BF8B0600008A
:10055000046000400860004008B5074B044613B132
:100560000021AFF30080054B1868836A03B19847F8
:10057000204600F031F800BF00000000D80600005F
:1005800070B50D4D0D4C641BA4100026A64209D178
:100590000B4D0C4C00F022F8641BA4100026A64260
:1005A00005D170BD55F8043B98470136EEE755F884
:1005B000043B98470136F2E76C1000206C100020D5
:1005C0006C1000207010002002440346934200D1BA
:1005D000704703F8011BF9E7FEE700BFF8B500BF5D
:1005E000F8BC08BC9E467047F8B500BFF8BC08BC14
:1005F0009E467047433A2F55736572732F64616E40
:1006000069682F53696D706C696369747953747587
:1006100064696F2F53444B732F6765636B6F5F7310
:10062000646B2F706C6174666F726D2F656D6C6991
:10063000622F7372632F656D5F636D752E63006348
:100640003A5C75736572735C64616E69685C73694A
:100650006D706C696369747973747564696F5C73C8
:10066000646B735C6765636B6F5F73646B5C706C0A
:100670006174666F726D5C656D6C69625C696E63F6
:100680005C656D5F6770696F2E6800433A2F557324
:100690006572732F64616E69682F53696D706C6940
:1006A0006369747953747564696F2F53444B732F66
:1006B0006765636B6F5F73646B2F706C6174666FDB
:1006C000726D2F656D6C69622F7372632F656D5F3C
:0C06D0006770696F2E6300000C100020A2
:0806DC0044FAFF7F0100000059
:1006E400809FD500006CDC02008000000000000048
:1006F40000000000000000000000000000000000F6
:1007040000000000000000000000000000000000E5
:1007140000000000000000000000000000000000D5
:1007240000000000000000000000000000000000C5
:1007340000000000000000000000000000000000B5
:10074400000000000000000000000000050100009F
:04075400E1000000C0
:04000003000001F107
:00000001FF
